:100000008316850186014730810005148514051586
:100010008515051606108610061186110612831224
:1000200007309F00850186010130AA000230AB0035
:100030000330AC000430AD000530AE0006140608F5
:10004000BA008601D32486140608BB008601D32497
:1000500006150608BC008601D32486150608BD00D7
:100060008601D32406160608BE008601D324051C8B
:100070003F28D32405183A280130B1006528851C93
:100080004728D324851842280230B1006528051D71
:100090004F28D32405194A280330B1006528851D4F
:1000A0005728D324851952280430B1006528051E2D
:1000B0005F28D324051A5A280530B100652801307D
:1000C000C9070230C807EC24372886010130C9026D
:1000D000031D6F283A08AA000130A90093280130B7
:1000E000C902031D78283B08AA000230A900932802
:1000F0000130C902031D81283C08AA000330A90071
:1001000093280130C902031D8A283D08AA00043043
:10011000A90093280130C902031D65283E08AA00E2
:100120000530A900932806140608BA008601861433
:100130000608BB00860106150608BC008601861568
:100140000608BD00860106160608BE0086010130BD
:10015000C802031DB0283A08AB000130A800D4281B
:100160000130C802031DB9283B08AB000230A800CB
:10017000D4280130C802031DC2283C08AB0003305C
:10018000A800D4280130C802031DCB283D08AB00CD
:100190000430A800D4280130C802031DA7283E0857
:1001A000AB000530A800D4282A083102031DDD2841
:1001B0001430B0003D30B10001292B083102031D7D
:1001C000E6281030B0003D30B10001292C08310282
:1001D000031DEF280C30B0003D30B10001292D087F
:1001E0003102031DF8280A30B0003D30B10001296A
:1001F0002E083102031D37280830B0003D30B10011
:1002000001298601E0242A088600C7248601E0240B
:100210002B088600C7248601E0240230A0000614C3
:100220000608BA00860186140608BB00860106157A
:100230000608BC00860186150608BD008601061664
:100240000608BE008601051C2C290130C0000614DA
:10025000D324051829295629851C35290230C000C8
:100260008614D324851832295629051D3E290330CA
:10027000C0000615D32405193B295629851D472999
:100280000430C0008615D324851944295629051E3B
:1002900050290530C0000616D324051A4D295629C9
:1002A0000230C8070130C907EC242329D324860172
:1002B0000130C902031D61293A08DC000130CC007D
:1002C00085290130C902031D6A293B08DC00023080
:1002D000CC0085290130C902031D73293C08DC00CC
:1002E0000330CC0085290130C902031D7C293D085B
:1002F000DC000430CC0085290130C902031D5829D7
:100300003E08DC000530CC00852906140608BA003A
:10031000860186140608BB00860106150608BC0087
:10032000860186150608BD00860106160608BE0071
:1003300086010130C802031DA2293A08DD00013000
:10034000CD00C6290130C802031DAB293B08DD00E2
:100350000230CD00C6290130C802031DB4293C0873
:10036000DD000330CD00C6290130C802031DBD29C0
:100370003D08DD000430CD00C6290130C802031D50
:1003800099293E08DD000530CD00C6290130A002C4
:10039000031DCF2940082802031D9B2CD4294008A7
:1003A0002902031D9B2C232986012A088600C724C5
:1003B0008601E0242B088600C7248601E0245C081F
:1003C0008600C7248601E0245D088600C7248601D4
:1003D0000230A0000330EC000430ED0006140608E3
:1003E000BA00860186140608BB00860106150608B9
:1003F000BC00860186150608BD00860106160608A3
:10040000BE008601051C0B2A0130C0000614D3244F
:100410000518082A352A851C142A0230C0008614C3
:10042000D3248518112A352A051D1D2A0330C00042
:100430000615D32405191A2A352A851D262A0430C3
:10044000C0008615D3248519232A352A051E2F2A94
:100450000530C0000616D324051A2C2A352A02308E
:10046000C8070130C907EC24022AD32486010130D1
:10047000C902031D402A3A08DE000130CE00642A7A
:100480000130C902031D492A3B08DE000230CE00BC
:10049000642A0130C902031D522A3C08DE000330E1
:1004A000CE00642A0130C902031D5B2A3D08DE002C
:1004B0000430CE00642A0130C902031D372A3E08E9
:1004C000DE000530CE00642A06140608BA00860154
:1004D00086140608BB00860106150608BC008601C6
:1004E00086150608BD00860106160608BE008601B0
:1004F0000130C802031D812A3A08DF000130CF0015
:10050000A52A0130C802031D8A2A3B08DF000230F9
:10051000CF00A52A0130C802031D932A3C08DF0042
:100520000330CF00A52A0130C802031D9C2A3D08D4
:10053000DF000430CF00A52A0130C802031D782A4D
:100540003E08DF000530CF00A52A0130ED02031D73
:10055000AE2A40084D02031D9B2CC52A0130EC0237
:10056000031DB72A40084C02031D9B2C022A0130B0
:10057000A002031DC02A40082802031D9B2C022A4A
:1005800040082902031D9B2C022A86012A088600A6
:10059000C7248601E0242B088600C7248601E024B6
:1005A0005C088600C7248601E0245D088600C72415
:1005B0008601E0245E088600C7248601E0245F08E7
:1005C0008600C7248601E0240230A0000330EC003E
:1005D0000430ED000530EE000630EF00061406088A
:1005E000BA00860186140608BB00860106150608B7
:1005F000BC00860186150608BD00860106160608A1
:10060000BE008601051C0B2B0130C0000614D3244C
:100610000518082B352B851C142B0230C0008614BE
:10062000D3248518112B352B051D1D2B0330C0003D
:100630000615D32405191A2B352B851D262B0430BE
:10064000C0008615D3248519232B352B051E2F2B8F
:100650000530C0000616D324051A2C2B352B02308A
:10066000C8070130C907EC24022BD32486010130CE
:10067000C902031D402B3A08E0000130C100642B81
:100680000130C902031D492B3B08E0000230C100C4
:10069000642B0130C902031D522B3C08E0000330DB
:1006A000C100642B0130C902031D5B2B3D08E00033
:1006B0000430C100642B0130C902031D372B3E08F2
:1006C000E0000530C100642B06140608BA0086015C
:1006D00086140608BB00860106150608BC008601C4
:1006E00086150608BD00860106160608BE008601AE
:1006F00086010130C802031D822B3A08E100013057
:10070000C200A62B0130C802031D8B2B3B08E10061
:100710000230C200A62B0130C802031D942B3C08F6
:10072000E1000330C200A62B0130C802031D9D2B3F
:100730003D08E1000430C200A62B0130C802031DB1
:10074000782B3E08E1000530C200A62B0130EF02F5
:10075000031DAF2B40084F02031D9B2CD82B0130EB
:10076000EE02031DB82B40084E02031D9B2C022BEA
:100770000130ED02031DC12B40084D02031D9B2CCF
:10078000022B0130EC02031DCA2B40084C02031D52
:100790009B2C022B0130A002031DD32B4008280202
:1007A000031D9B2C022B40082902031D9B2C022BAE
:1007B00086012A088600C7248601E0242B088600CB
:1007C000C7248601E0245C088600C7248601E02453
:1007D0005D088600C7248601E0245E088600C724E1
:1007E0008601E0245F088600C7248601E0246008B3
:1007F0008600C7248601E02461088600C72486019C
:100800000230A0000330EC000430ED000530EE00B3
:100810000630EF000730E2000830E3000614060857
:10082000BA00860186140608BB0086010615060874
:10083000BC00860186150608BD008601061606085E
:10084000BE008601051C2B2C0130C0000614D324E9
:100850000518282C552C851C342C0230C000861419
:10086000D3248518312C552C051D3D2C0330C00098
:100870000615D32405193A2C552C851D462C043019
:10088000C0008615D3248519432C552C051E4F2CEA
:100890000530C0000616D324051A4C2C552C023006
:1008A000C8070130C907EC24222C8601D32401306B
:1008B000E302031D602C40084202031D9B2CB32C55
:1008C0000130E202031D692C40084102031D9B2CEC
:1008D000222C0130EF02031D722C40084F02031D31
:1008E0009B2C222C0130EE02031D7B2C40084E0273
:1008F000031D9B2C222C0130ED02031D842C40088B
:100900004D02031D9B2C222C0130EC02031D8D2C6B
:1009100040084C02031D9B2C222C0130A002031D19
:10092000962C40082802031D9B2C222C40082902EB
:10093000031D9B2C222C06148614061586150616FC
:10094000E0248601E0240614861406158615061692
:10095000C7248601E024061486140615861506169B
:10096000E024860137280614C7248614C7240615F8
:10097000C7248615C7240616C7248601C724061473
:100980008614061586150616C724860137288101A8
:100990003008FF000B113D3081000B1DCD2CD02CF9
:1009A000FF0BCA2C080081010330F8000B113D3009
:1009B00081000B1DD92CDC2CF80BD62C080008006C
:1009C00081010430F8000B113D3081000B1DE62C35
:1009D000E92CF80BE32C080081010130C7000B1152
:1009E000FF3081000B1DF22CF52CC70BEF2C0800FB
:02400E00503F21
:00000001FF
